{
  "address": "0x0c180588B61eB55E98452A242e7c1665805DB3A7",
  "abi": [
    {
      "inputs": [
        {
          "internalType": "uint256",
          "name": "initialSupply",
          "type": "uint256"
        }
      ],
      "stateMutability": "nonpayable",
      "type": "constructor"
    },
    {
      "inputs": [
        {
          "internalType": "address",
          "name": "spender",
          "type": "address"
        },
        {
          "internalType": "uint256",
          "name": "allowance",
          "type": "uint256"
        },
        {
          "internalType": "uint256",
          "name": "needed",
          "type": "uint256"
        }
      ],
      "name": "ERC20InsufficientAllowance",
      "type": "error"
    },
    {
      "inputs": [
        {
          "internalType": "address",
          "name": "sender",
          "type": "address"
        },
        {
          "internalType": "uint256",
          "name": "balance",
          "type": "uint256"
        },
        {
          "internalType": "uint256",
          "name": "needed",
          "type": "uint256"
        }
      ],
      "name": "ERC20InsufficientBalance",
      "type": "error"
    },
    {
      "inputs": [
        {
          "internalType": "address",
          "name": "approver",
          "type": "address"
        }
      ],
      "name": "ERC20InvalidApprover",
      "type": "error"
    },
    {
      "inputs": [
        {
          "internalType": "address",
          "name": "receiver",
          "type": "address"
        }
      ],
      "name": "ERC20InvalidReceiver",
      "type": "error"
    },
    {
      "inputs": [
        {
          "internalType": "address",
          "name": "sender",
          "type": "address"
        }
      ],
      "name": "ERC20InvalidSender",
      "type": "error"
    },
    {
      "inputs": [
        {
          "internalType": "address",
          "name": "spender",
          "type": "address"
        }
      ],
      "name": "ERC20InvalidSpender",
      "type": "error"
    },
    {
      "inputs": [
        {
          "internalType": "address",
          "name": "owner",
          "type": "address"
        }
      ],
      "name": "OwnableInvalidOwner",
      "type": "error"
    },
    {
      "inputs": [
        {
          "internalType": "address",
          "name": "account",
          "type": "address"
        }
      ],
      "name": "OwnableUnauthorizedAccount",
      "type": "error"
    },
    {
      "anonymous": false,
      "inputs": [
        {
          "indexed": true,
          "internalType": "address",
          "name": "owner",
          "type": "address"
        },
        {
          "indexed": true,
          "internalType": "address",
          "name": "spender",
          "type": "address"
        },
        {
          "indexed": false,
          "internalType": "uint256",
          "name": "value",
          "type": "uint256"
        }
      ],
      "name": "Approval",
      "type": "event"
    },
    {
      "anonymous": false,
      "inputs": [
        {
          "indexed": true,
          "internalType": "address",
          "name": "previousOwner",
          "type": "address"
        },
        {
          "indexed": true,
          "internalType": "address",
          "name": "newOwner",
          "type": "address"
        }
      ],
      "name": "OwnershipTransferred",
      "type": "event"
    },
    {
      "anonymous": false,
      "inputs": [
        {
          "indexed": true,
          "internalType": "address",
          "name": "from",
          "type": "address"
        },
        {
          "indexed": true,
          "internalType": "address",
          "name": "to",
          "type": "address"
        },
        {
          "indexed": false,
          "internalType": "uint256",
          "name": "value",
          "type": "uint256"
        }
      ],
      "name": "Transfer",
      "type": "event"
    },
    {
      "inputs": [
        {
          "internalType": "address[]",
          "name": "_miners",
          "type": "address[]"
        }
      ],
      "name": "addMiner",
      "outputs": [],
      "stateMutability": "nonpayable",
      "type": "function"
    },
    {
      "inputs": [
        {
          "internalType": "address",
          "name": "owner",
          "type": "address"
        },
        {
          "internalType": "address",
          "name": "spender",
          "type": "address"
        }
      ],
      "name": "allowance",
      "outputs": [
        {
          "internalType": "uint256",
          "name": "",
          "type": "uint256"
        }
      ],
      "stateMutability": "view",
      "type": "function"
    },
    {
      "inputs": [
        {
          "internalType": "address",
          "name": "spender",
          "type": "address"
        },
        {
          "internalType": "uint256",
          "name": "value",
          "type": "uint256"
        }
      ],
      "name": "approve",
      "outputs": [
        {
          "internalType": "bool",
          "name": "",
          "type": "bool"
        }
      ],
      "stateMutability": "nonpayable",
      "type": "function"
    },
    {
      "inputs": [
        {
          "internalType": "address",
          "name": "account",
          "type": "address"
        }
      ],
      "name": "balanceOf",
      "outputs": [
        {
          "internalType": "uint256",
          "name": "",
          "type": "uint256"
        }
      ],
      "stateMutability": "view",
      "type": "function"
    },
    {
      "inputs": [],
      "name": "decimals",
      "outputs": [
        {
          "internalType": "uint8",
          "name": "",
          "type": "uint8"
        }
      ],
      "stateMutability": "view",
      "type": "function"
    },
    {
      "inputs": [
        {
          "internalType": "address",
          "name": "_target",
          "type": "address"
        }
      ],
      "name": "isMiner",
      "outputs": [
        {
          "internalType": "bool",
          "name": "",
          "type": "bool"
        }
      ],
      "stateMutability": "view",
      "type": "function"
    },
    {
      "inputs": [
        {
          "internalType": "address",
          "name": "_target",
          "type": "address"
        },
        {
          "internalType": "uint256",
          "name": "_amount",
          "type": "uint256"
        }
      ],
      "name": "mint",
      "outputs": [],
      "stateMutability": "nonpayable",
      "type": "function"
    },
    {
      "inputs": [],
      "name": "name",
      "outputs": [
        {
          "internalType": "string",
          "name": "",
          "type": "string"
        }
      ],
      "stateMutability": "view",
      "type": "function"
    },
    {
      "inputs": [],
      "name": "owner",
      "outputs": [
        {
          "internalType": "address",
          "name": "",
          "type": "address"
        }
      ],
      "stateMutability": "view",
      "type": "function"
    },
    {
      "inputs": [
        {
          "internalType": "address[]",
          "name": "_miners",
          "type": "address[]"
        }
      ],
      "name": "removeMiner",
      "outputs": [],
      "stateMutability": "nonpayable",
      "type": "function"
    },
    {
      "inputs": [],
      "name": "renounceOwnership",
      "outputs": [],
      "stateMutability": "nonpayable",
      "type": "function"
    },
    {
      "inputs": [],
      "name": "symbol",
      "outputs": [
        {
          "internalType": "string",
          "name": "",
          "type": "string"
        }
      ],
      "stateMutability": "view",
      "type": "function"
    },
    {
      "inputs": [],
      "name": "totalSupply",
      "outputs": [
        {
          "internalType": "uint256",
          "name": "",
          "type": "uint256"
        }
      ],
      "stateMutability": "view",
      "type": "function"
    },
    {
      "inputs": [
        {
          "internalType": "address",
          "name": "to",
          "type": "address"
        },
        {
          "internalType": "uint256",
          "name": "value",
          "type": "uint256"
        }
      ],
      "name": "transfer",
      "outputs": [
        {
          "internalType": "bool",
          "name": "",
          "type": "bool"
        }
      ],
      "stateMutability": "nonpayable",
      "type": "function"
    },
    {
      "inputs": [
        {
          "internalType": "address",
          "name": "from",
          "type": "address"
        },
        {
          "internalType": "address",
          "name": "to",
          "type": "address"
        },
        {
          "internalType": "uint256",
          "name": "value",
          "type": "uint256"
        }
      ],
      "name": "transferFrom",
      "outputs": [
        {
          "internalType": "bool",
          "name": "",
          "type": "bool"
        }
      ],
      "stateMutability": "nonpayable",
      "type": "function"
    },
    {
      "inputs": [
        {
          "internalType": "address",
          "name": "newOwner",
          "type": "address"
        }
      ],
      "name": "transferOwnership",
      "outputs": [],
      "stateMutability": "nonpayable",
      "type": "function"
    }
  ],
  "transactionHash": "0x421737fc65ee002792f3a5db34e5ee5ea135c07ebd2037244131c3fe5a12b83b",
  "args": [
    0
  ],
  "numDeployments": 1,
  "solcInputHash": "f7298f22d4d9e68e205dd3cfb1c38692",
  "bytecode": "0x60806040523480156200001157600080fd5b5060405162001ff938038062001ff9833981810160405281019062000037919062000585565b336040518060400160405280601381526020017f4d6574697320546573746e657420546f6b656e000000000000000000000000008152506040518060400160405280600581526020017f4d455449530000000000000000000000000000000000000000000000000000008152508160039081620000b5919062000827565b508060049081620000c7919062000827565b505050600073ffffffffffffffffffffffffffffffffffffffff168173ffffffffffffffffffffffffffffffffffffffff16036200013f5760006040517f1e4fbdf700000000000000000000000000000000000000000000000000000000815260040162000136919062000953565b60405180910390fd5b6200015081620001c260201b60201c565b506200016333826200028860201b60201c565b6001600660003373ffffffffffffffffffffffffffffffffffffffff1673ffffffffffffffffffffffffffffffffffffffff16815260200190815260200160002060006101000a81548160ff0219169083151502179055505062000a45565b6000600560009054906101000a900473ffffffffffffffffffffffffffffffffffffffff16905081600560006101000a81548173ffffffffffffffffffffffffffffffffffffffff021916908373ffffffffffffffffffffffffffffffffffffffff1602179055508173ffffffffffffffffffffffffffffffffffffffff168173ffffffffffffffffffffffffffffffffffffffff167f8be0079c531659141344cd1fd0a4f28419497f9722a3daafe3b4186f6b6457e060405160405180910390a35050565b600073ffffffffffffffffffffffffffffffffffffffff168273ffffffffffffffffffffffffffffffffffffffff1603620002fd5760006040517fec442f05000000000000000000000000000000000000000000000000000000008152600401620002f4919062000953565b60405180910390fd5b62000311600083836200031560201b60201c565b5050565b600073ffffffffffffffffffffffffffffffffffffffff168373ffffffffffffffffffffffffffffffffffffffff16036200036b5780600260008282546200035e91906200099f565b9250508190555062000441565b60008060008573ffffffffffffffffffffffffffffffffffffffff1673ffffffffffffffffffffffffffffffffffffffff16815260200190815260200160002054905081811015620003fa578381836040517fe450d38c000000000000000000000000000000000000000000000000000000008152600401620003f193929190620009eb565b60405180910390fd5b8181036000808673ffffffffffffffffffffffffffffffffffffffff1673ffffffffffffffffffffffffffffffffffffffff16815260200190815260200160002081905550505b600073ffffffffffffffffffffffffffffffffffffffff168273ffffffffffffffffffffffffffffffffffffffff16036200048c5780600260008282540392505081905550620004d9565b806000808473ffffffffffffffffffffffffffffffffffffffff1673ffffffffffffffffffffffffffffffffffffffff168152602001908152602001600020600082825401925050819055505b8173ffffffffffffffffffffffffffffffffffffffff168373ffffffffffffffffffffffffffffffffffffffff167fddf252ad1be2c89b69c2b068fc378daa952ba7f163c4a11628f55a4df523b3ef8360405162000538919062000a28565b60405180910390a3505050565b600080fd5b6000819050919050565b6200055f816200054a565b81146200056b57600080fd5b50565b6000815190506200057f8162000554565b92915050565b6000602082840312156200059e576200059d62000545565b5b6000620005ae848285016200056e565b91505092915050565b600081519050919050565b7f4e487b7100000000000000000000000000000000000000000000000000000000600052604160045260246000fd5b7f4e487b7100000000000000000000000000000000000000000000000000000000600052602260045260246000fd5b600060028204905060018216806200063957607f821691505b6020821081036200064f576200064e620005f1565b5b50919050565b60008190508160005260206000209050919050565b60006020601f8301049050919050565b600082821b905092915050565b600060088302620006b97fffffffffffffffffffffffffffffffffffffffffffffffffffffffffffffffff826200067a565b620006c586836200067a565b95508019841693508086168417925050509392505050565b6000819050919050565b60006200070862000702620006fc846200054a565b620006dd565b6200054a565b9050919050565b6000819050919050565b6200072483620006e7565b6200073c62000733826200070f565b84845462000687565b825550505050565b600090565b6200075362000744565b6200076081848462000719565b505050565b5b8181101562000788576200077c60008262000749565b60018101905062000766565b5050565b601f821115620007d757620007a18162000655565b620007ac846200066a565b81016020851015620007bc578190505b620007d4620007cb856200066a565b83018262000765565b50505b505050565b600082821c905092915050565b6000620007fc60001984600802620007dc565b1980831691505092915050565b6000620008178383620007e9565b9150826002028217905092915050565b6200083282620005b7565b67ffffffffffffffff8111156200084e576200084d620005c2565b5b6200085a825462000620565b620008678282856200078c565b600060209050601f8311600181146200089f57600084156200088a578287015190505b62000896858262000809565b86555062000906565b601f198416620008af8662000655565b60005b82811015620008d957848901518255600182019150602085019450602081019050620008b2565b86831015620008f95784890151620008f5601f891682620007e9565b8355505b6001600288020188555050505b505050505050565b600073ffffffffffffffffffffffffffffffffffffffff82169050919050565b60006200093b826200090e565b9050919050565b6200094d816200092e565b82525050565b60006020820190506200096a600083018462000942565b92915050565b7f4e487b7100000000000000000000000000000000000000000000000000000000600052601160045260246000fd5b6000620009ac826200054a565b9150620009b9836200054a565b9250828201905080821115620009d457620009d362000970565b5b92915050565b620009e5816200054a565b82525050565b600060608201905062000a02600083018662000942565b62000a116020830185620009da565b62000a206040830184620009da565b949350505050565b600060208201905062000a3f6000830184620009da565b92915050565b6115a48062000a556000396000f3fe608060405234801561001057600080fd5b50600436106101005760003560e01c8063701b70ac1161009757806395d89b411161006657806395d89b411461029b578063a9059cbb146102b9578063dd62ed3e146102e9578063f2fde38b1461031957610100565b8063701b70ac1461021357806370a0823114610243578063715018a6146102735780638da5cb5b1461027d57610100565b8063313ce567116100d3578063313ce567146101a15780634055727f146101bf57806340c10f19146101db5780636283c7cd146101f757610100565b806306fdde0314610105578063095ea7b31461012357806318160ddd1461015357806323b872dd14610171575b600080fd5b61010d610335565b60405161011a91906110a6565b60405180910390f35b61013d60048036038101906101389190611166565b6103c7565b60405161014a91906111c1565b60405180910390f35b61015b6103ea565b60405161016891906111eb565b60405180910390f35b61018b60048036038101906101869190611206565b6103f4565b60405161019891906111c1565b60405180910390f35b6101a9610423565b6040516101b69190611275565b60405180910390f35b6101d960048036038101906101d491906112f5565b61042c565b005b6101f560048036038101906101f09190611166565b6104d3565b005b610211600480360381019061020c91906112f5565b61056d565b005b61022d60048036038101906102289190611342565b61060b565b60405161023a91906111c1565b60405180910390f35b61025d60048036038101906102589190611342565b610661565b60405161026a91906111eb565b60405180910390f35b61027b6106a9565b005b6102856106bd565b604051610292919061137e565b60405180910390f35b6102a36106e7565b6040516102b091906110a6565b60405180910390f35b6102d360048036038101906102ce9190611166565b610779565b6040516102e091906111c1565b60405180910390f35b61030360048036038101906102fe9190611399565b61079c565b60405161031091906111eb565b60405180910390f35b610333600480360381019061032e9190611342565b610823565b005b60606003805461034490611408565b80601f016020809104026020016040519081016040528092919081815260200182805461037090611408565b80156103bd5780601f10610392576101008083540402835291602001916103bd565b820191906000526020600020905b8154815290600101906020018083116103a057829003601f168201915b5050505050905090565b6000806103d26108a9565b90506103df8185856108b1565b600191505092915050565b6000600254905090565b6000806103ff6108a9565b905061040c8582856108c3565b610417858585610957565b60019150509392505050565b60006012905090565b610434610a4b565b60005b828290508110156104ce5760016006600085858581811061045b5761045a611439565b5b90506020020160208101906104709190611342565b73ffffffffffffffffffffffffffffffffffffffff1673ffffffffffffffffffffffffffffffffffffffff16815260200190815260200160002060006101000a81548160ff0219169083151502179055508080600101915050610437565b505050565b600660003373ffffffffffffffffffffffffffffffffffffffff1673ffffffffffffffffffffffffffffffffffffffff16815260200190815260200160002060009054906101000a900460ff1661055f576040517f08c379a0000000000000000000000000000000000000000000000000000000008152600401610556906114b4565b60405180910390fd5b6105698282610ad2565b5050565b610575610a4b565b60005b82829050811015610606576006600084848481811061059a57610599611439565b5b90506020020160208101906105af9190611342565b73ffffffffffffffffffffffffffffffffffffffff1673ffffffffffffffffffffffffffffffffffffffff16815260200190815260200160002060006101000a81549060ff02191690558080600101915050610578565b505050565b6000600660008373ffffffffffffffffffffffffffffffffffffffff1673ffffffffffffffffffffffffffffffffffffffff16815260200190815260200160002060009054906101000a900460ff169050919050565b60008060008373ffffffffffffffffffffffffffffffffffffffff1673ffffffffffffffffffffffffffffffffffffffff168152602001908152602001600020549050919050565b6106b1610a4b565b6106bb6000610b54565b565b6000600560009054906101000a900473ffffffffffffffffffffffffffffffffffffffff16905090565b6060600480546106f690611408565b80601f016020809104026020016040519081016040528092919081815260200182805461072290611408565b801561076f5780601f106107445761010080835404028352916020019161076f565b820191906000526020600020905b81548152906001019060200180831161075257829003601f168201915b5050505050905090565b6000806107846108a9565b9050610791818585610957565b600191505092915050565b6000600160008473ffffffffffffffffffffffffffffffffffffffff1673ffffffffffffffffffffffffffffffffffffffff16815260200190815260200160002060008373ffffffffffffffffffffffffffffffffffffffff1673ffffffffffffffffffffffffffffffffffffffff16815260200190815260200160002054905092915050565b61082b610a4b565b600073ffffffffffffffffffffffffffffffffffffffff168173ffffffffffffffffffffffffffffffffffffffff160361089d5760006040517f1e4fbdf7000000000000000000000000000000000000000000000000000000008152600401610894919061137e565b60405180910390fd5b6108a681610b54565b50565b600033905090565b6108be8383836001610c1a565b505050565b60006108cf848461079c565b90507fffffffffffffffffffffffffffffffffffffffffffffffffffffffffffffffff81146109515781811015610941578281836040517ffb8f41b2000000000000000000000000000000000000000000000000000000008152600401610938939291906114d4565b60405180910390fd5b61095084848484036000610c1a565b5b50505050565b600073ffffffffffffffffffffffffffffffffffffffff168373ffffffffffffffffffffffffffffffffffffffff16036109c95760006040517f96c6fd1e0000000000000000000000000000000000000000000000000000000081526004016109c0919061137e565b60405180910390fd5b600073ffffffffffffffffffffffffffffffffffffffff168273ffffffffffffffffffffffffffffffffffffffff1603610a3b5760006040517fec442f05000000000000000000000000000000000000000000000000000000008152600401610a32919061137e565b60405180910390fd5b610a46838383610df1565b505050565b610a536108a9565b73ffffffffffffffffffffffffffffffffffffffff16610a716106bd565b73ffffffffffffffffffffffffffffffffffffffff1614610ad057610a946108a9565b6040517f118cdaa7000000000000000000000000000000000000000000000000000000008152600401610ac7919061137e565b60405180910390fd5b565b600073ffffffffffffffffffffffffffffffffffffffff168273ffffffffffffffffffffffffffffffffffffffff1603610b445760006040517fec442f05000000000000000000000000000000000000000000000000000000008152600401610b3b919061137e565b60405180910390fd5b610b5060008383610df1565b5050565b6000600560009054906101000a900473ffffffffffffffffffffffffffffffffffffffff16905081600560006101000a81548173ffffffffffffffffffffffffffffffffffffffff021916908373ffffffffffffffffffffffffffffffffffffffff1602179055508173ffffffffffffffffffffffffffffffffffffffff168173ffffffffffffffffffffffffffffffffffffffff167f8be0079c531659141344cd1fd0a4f28419497f9722a3daafe3b4186f6b6457e060405160405180910390a35050565b600073ffffffffffffffffffffffffffffffffffffffff168473ffffffffffffffffffffffffffffffffffffffff1603610c8c5760006040517fe602df05000000000000000000000000000000000000000000000000000000008152600401610c83919061137e565b60405180910390fd5b600073ffffffffffffffffffffffffffffffffffffffff168373ffffffffffffffffffffffffffffffffffffffff1603610cfe5760006040517f94280d62000000000000000000000000000000000000000000000000000000008152600401610cf5919061137e565b60405180910390fd5b81600160008673ffffffffffffffffffffffffffffffffffffffff1673ffffffffffffffffffffffffffffffffffffffff16815260200190815260200160002060008573ffffffffffffffffffffffffffffffffffffffff1673ffffffffffffffffffffffffffffffffffffffff168152602001908152602001600020819055508015610deb578273ffffffffffffffffffffffffffffffffffffffff168473ffffffffffffffffffffffffffffffffffffffff167f8c5be1e5ebec7d5bd14f71427d1e84f3dd0314c0f7b2291e5b200ac8c7c3b92584604051610de291906111eb565b60405180910390a35b50505050565b600073ffffffffffffffffffffffffffffffffffffffff168373ffffffffffffffffffffffffffffffffffffffff1603610e43578060026000828254610e37919061153a565b92505081905550610f16565b60008060008573ffffffffffffffffffffffffffffffffffffffff1673ffffffffffffffffffffffffffffffffffffffff16815260200190815260200160002054905081811015610ecf578381836040517fe450d38c000000000000000000000000000000000000000000000000000000008152600401610ec6939291906114d4565b60405180910390fd5b8181036000808673ffffffffffffffffffffffffffffffffffffffff1673ffffffffffffffffffffffffffffffffffffffff16815260200190815260200160002081905550505b600073ffffffffffffffffffffffffffffffffffffffff168273ffffffffffffffffffffffffffffffffffffffff1603610f5f5780600260008282540392505081905550610fac565b806000808473ffffffffffffffffffffffffffffffffffffffff1673ffffffffffffffffffffffffffffffffffffffff168152602001908152602001600020600082825401925050819055505b8173ffffffffffffffffffffffffffffffffffffffff168373ffffffffffffffffffffffffffffffffffffffff167fddf252ad1be2c89b69c2b068fc378daa952ba7f163c4a11628f55a4df523b3ef8360405161100991906111eb565b60405180910390a3505050565b600081519050919050565b600082825260208201905092915050565b60005b83811015611050578082015181840152602081019050611035565b60008484015250505050565b6000601f19601f8301169050919050565b600061107882611016565b6110828185611021565b9350611092818560208601611032565b61109b8161105c565b840191505092915050565b600060208201905081810360008301526110c0818461106d565b905092915050565b600080fd5b600080fd5b600073ffffffffffffffffffffffffffffffffffffffff82169050919050565b60006110fd826110d2565b9050919050565b61110d816110f2565b811461111857600080fd5b50565b60008135905061112a81611104565b92915050565b6000819050919050565b61114381611130565b811461114e57600080fd5b50565b6000813590506111608161113a565b92915050565b6000806040838503121561117d5761117c6110c8565b5b600061118b8582860161111b565b925050602061119c85828601611151565b9150509250929050565b60008115159050919050565b6111bb816111a6565b82525050565b60006020820190506111d660008301846111b2565b92915050565b6111e581611130565b82525050565b600060208201905061120060008301846111dc565b92915050565b60008060006060848603121561121f5761121e6110c8565b5b600061122d8682870161111b565b935050602061123e8682870161111b565b925050604061124f86828701611151565b9150509250925092565b600060ff82169050919050565b61126f81611259565b82525050565b600060208201905061128a6000830184611266565b92915050565b600080fd5b600080fd5b600080fd5b60008083601f8401126112b5576112b4611290565b5b8235905067ffffffffffffffff8111156112d2576112d1611295565b5b6020830191508360208202830111156112ee576112ed61129a565b5b9250929050565b6000806020838503121561130c5761130b6110c8565b5b600083013567ffffffffffffffff81111561132a576113296110cd565b5b6113368582860161129f565b92509250509250929050565b600060208284031215611358576113576110c8565b5b60006113668482850161111b565b91505092915050565b611378816110f2565b82525050565b6000602082019050611393600083018461136f565b92915050565b600080604083850312156113b0576113af6110c8565b5b60006113be8582860161111b565b92505060206113cf8582860161111b565b9150509250929050565b7f4e487b7100000000000000000000000000000000000000000000000000000000600052602260045260246000fd5b6000600282049050600182168061142057607f821691505b602082108103611433576114326113d9565b5b50919050565b7f4e487b7100000000000000000000000000000000000000000000000000000000600052603260045260246000fd5b7f3430330000000000000000000000000000000000000000000000000000000000600082015250565b600061149e600383611021565b91506114a982611468565b602082019050919050565b600060208201905081810360008301526114cd81611491565b9050919050565b60006060820190506114e9600083018661136f565b6114f660208301856111dc565b61150360408301846111dc565b949350505050565b7f4e487b7100000000000000000000000000000000000000000000000000000000600052601160045260246000fd5b600061154582611130565b915061155083611130565b92508282019050808211156115685761156761150b565b5b9291505056fea264697066735822122043727f10c12d7a7ac14f07e22907647a8afd9526164eba4bbd7d81dd8d6c1ada64736f6c63430008170033",
  "devdoc": {
    "errors": {
      "ERC20InsufficientAllowance(address,uint256,uint256)": [
        {
          "details": "Indicates a failure with the `spender`s `allowance`. Used in transfers.",
          "params": {
            "allowance": "Amount of tokens a `spender` is allowed to operate with.",
            "needed": "Minimum amount required to perform a transfer.",
            "spender": "Address that may be allowed to operate on tokens without being their owner."
          }
        }
      ],
      "ERC20InsufficientBalance(address,uint256,uint256)": [
        {
          "details": "Indicates an error related to the current `balance` of a `sender`. Used in transfers.",
          "params": {
            "balance": "Current balance for the interacting account.",
            "needed": "Minimum amount required to perform a transfer.",
            "sender": "Address whose tokens are being transferred."
          }
        }
      ],
      "ERC20InvalidApprover(address)": [
        {
          "details": "Indicates a failure with the `approver` of a token to be approved. Used in approvals.",
          "params": {
            "approver": "Address initiating an approval operation."
          }
        }
      ],
      "ERC20InvalidReceiver(address)": [
        {
          "details": "Indicates a failure with the token `receiver`. Used in transfers.",
          "params": {
            "receiver": "Address to which tokens are being transferred."
          }
        }
      ],
      "ERC20InvalidSender(address)": [
        {
          "details": "Indicates a failure with the token `sender`. Used in transfers.",
          "params": {
            "sender": "Address whose tokens are being transferred."
          }
        }
      ],
      "ERC20InvalidSpender(address)": [
        {
          "details": "Indicates a failure with the `spender` to be approved. Used in approvals.",
          "params": {
            "spender": "Address that may be allowed to operate on tokens without being their owner."
          }
        }
      ],
      "OwnableInvalidOwner(address)": [
        {
          "details": "The owner is not a valid owner account. (eg. `address(0)`)"
        }
      ],
      "OwnableUnauthorizedAccount(address)": [
        {
          "details": "The caller account is not authorized to perform an operation."
        }
      ]
    },
    "events": {
      "Approval(address,address,uint256)": {
        "details": "Emitted when the allowance of a `spender` for an `owner` is set by a call to {approve}. `value` is the new allowance."
      },
      "Transfer(address,address,uint256)": {
        "details": "Emitted when `value` tokens are moved from one account (`from`) to another (`to`). Note that `value` may be zero."
      }
    },
    "kind": "dev",
    "methods": {
      "allowance(address,address)": {
        "details": "See {IERC20-allowance}."
      },
      "approve(address,uint256)": {
        "details": "See {IERC20-approve}. NOTE: If `value` is the maximum `uint256`, the allowance is not updated on `transferFrom`. This is semantically equivalent to an infinite approval. Requirements: - `spender` cannot be the zero address."
      },
      "balanceOf(address)": {
        "details": "See {IERC20-balanceOf}."
      },
      "decimals()": {
        "details": "Returns the number of decimals used to get its user representation. For example, if `decimals` equals `2`, a balance of `505` tokens should be displayed to a user as `5.05` (`505 / 10 ** 2`). Tokens usually opt for a value of 18, imitating the relationship between Ether and Wei. This is the default value returned by this function, unless it's overridden. NOTE: This information is only used for _display_ purposes: it in no way affects any of the arithmetic of the contract, including {IERC20-balanceOf} and {IERC20-transfer}."
      },
      "name()": {
        "details": "Returns the name of the token."
      },
      "owner()": {
        "details": "Returns the address of the current owner."
      },
      "renounceOwnership()": {
        "details": "Leaves the contract without owner. It will not be possible to call `onlyOwner` functions. Can only be called by the current owner. NOTE: Renouncing ownership will leave the contract without an owner, thereby disabling any functionality that is only available to the owner."
      },
      "symbol()": {
        "details": "Returns the symbol of the token, usually a shorter version of the name."
      },
      "totalSupply()": {
        "details": "See {IERC20-totalSupply}."
      },
      "transfer(address,uint256)": {
        "details": "See {IERC20-transfer}. Requirements: - `to` cannot be the zero address. - the caller must have a balance of at least `value`."
      },
      "transferFrom(address,address,uint256)": {
        "details": "See {IERC20-transferFrom}. Emits an {Approval} event indicating the updated allowance. This is not required by the EIP. See the note at the beginning of {ERC20}. NOTE: Does not update the allowance if the current allowance is the maximum `uint256`. Requirements: - `from` and `to` cannot be the zero address. - `from` must have a balance of at least `value`. - the caller must have allowance for ``from``'s tokens of at least `value`."
      },
      "transferOwnership(address)": {
        "details": "Transfers ownership of the contract to a new account (`newOwner`). Can only be called by the current owner."
      }
    },
    "version": 1
  },
  "userdoc": {
    "kind": "user",
    "methods": {},
    "version": 1
  },
  "storageLayout": {
    "storage": [
      {
        "astId": 307,
        "contract": "contracts/Token.sol:MetisToken",
        "label": "_balances",
        "offset": 0,
        "slot": "0",
        "type": "t_mapping(t_address,t_uint256)"
      },
      {
        "astId": 313,
        "contract": "contracts/Token.sol:MetisToken",
        "label": "_allowances",
        "offset": 0,
        "slot": "1",
        "type": "t_mapping(t_address,t_mapping(t_address,t_uint256))"
      },
      {
        "astId": 315,
        "contract": "contracts/Token.sol:MetisToken",
        "label": "_totalSupply",
        "offset": 0,
        "slot": "2",
        "type": "t_uint256"
      },
      {
        "astId": 317,
        "contract": "contracts/Token.sol:MetisToken",
        "label": "_name",
        "offset": 0,
        "slot": "3",
        "type": "t_string_storage"
      },
      {
        "astId": 319,
        "contract": "contracts/Token.sol:MetisToken",
        "label": "_symbol",
        "offset": 0,
        "slot": "4",
        "type": "t_string_storage"
      },
      {
        "astId": 8,
        "contract": "contracts/Token.sol:MetisToken",
        "label": "_owner",
        "offset": 0,
        "slot": "5",
        "type": "t_address"
      },
      {
        "astId": 947,
        "contract": "contracts/Token.sol:MetisToken",
        "label": "miners",
        "offset": 0,
        "slot": "6",
        "type": "t_mapping(t_address,t_bool)"
      }
    ],
    "types": {
      "t_address": {
        "encoding": "inplace",
        "label": "address",
        "numberOfBytes": "20"
      },
      "t_bool": {
        "encoding": "inplace",
        "label": "bool",
        "numberOfBytes": "1"
      },
      "t_mapping(t_address,t_bool)": {
        "encoding": "mapping",
        "key": "t_address",
        "label": "mapping(address => bool)",
        "numberOfBytes": "32",
        "value": "t_bool"
      },
      "t_mapping(t_address,t_mapping(t_address,t_uint256))": {
        "encoding": "mapping",
        "key": "t_address",
        "label": "mapping(address => mapping(address => uint256))",
        "numberOfBytes": "32",
        "value": "t_mapping(t_address,t_uint256)"
      },
      "t_mapping(t_address,t_uint256)": {
        "encoding": "mapping",
        "key": "t_address",
        "label": "mapping(address => uint256)",
        "numberOfBytes": "32",
        "value": "t_uint256"
      },
      "t_string_storage": {
        "encoding": "bytes",
        "label": "string",
        "numberOfBytes": "32"
      },
      "t_uint256": {
        "encoding": "inplace",
        "label": "uint256",
        "numberOfBytes": "32"
      }
    }
  }
}