{
  "address": "0x7f49160EB9BB068101d445fe77E17ecDb37D0B47",
  "abi": [
    {
      "inputs": [],
      "stateMutability": "nonpayable",
      "type": "constructor"
    },
    {
      "inputs": [
        {
          "internalType": "address",
          "name": "spender",
          "type": "address"
        },
        {
          "internalType": "uint256",
          "name": "allowance",
          "type": "uint256"
        },
        {
          "internalType": "uint256",
          "name": "needed",
          "type": "uint256"
        }
      ],
      "name": "ERC20InsufficientAllowance",
      "type": "error"
    },
    {
      "inputs": [
        {
          "internalType": "address",
          "name": "sender",
          "type": "address"
        },
        {
          "internalType": "uint256",
          "name": "balance",
          "type": "uint256"
        },
        {
          "internalType": "uint256",
          "name": "needed",
          "type": "uint256"
        }
      ],
      "name": "ERC20InsufficientBalance",
      "type": "error"
    },
    {
      "inputs": [
        {
          "internalType": "address",
          "name": "approver",
          "type": "address"
        }
      ],
      "name": "ERC20InvalidApprover",
      "type": "error"
    },
    {
      "inputs": [
        {
          "internalType": "address",
          "name": "receiver",
          "type": "address"
        }
      ],
      "name": "ERC20InvalidReceiver",
      "type": "error"
    },
    {
      "inputs": [
        {
          "internalType": "address",
          "name": "sender",
          "type": "address"
        }
      ],
      "name": "ERC20InvalidSender",
      "type": "error"
    },
    {
      "inputs": [
        {
          "internalType": "address",
          "name": "spender",
          "type": "address"
        }
      ],
      "name": "ERC20InvalidSpender",
      "type": "error"
    },
    {
      "inputs": [
        {
          "internalType": "address",
          "name": "owner",
          "type": "address"
        }
      ],
      "name": "OwnableInvalidOwner",
      "type": "error"
    },
    {
      "inputs": [
        {
          "internalType": "address",
          "name": "account",
          "type": "address"
        }
      ],
      "name": "OwnableUnauthorizedAccount",
      "type": "error"
    },
    {
      "anonymous": false,
      "inputs": [
        {
          "indexed": true,
          "internalType": "address",
          "name": "owner",
          "type": "address"
        },
        {
          "indexed": true,
          "internalType": "address",
          "name": "spender",
          "type": "address"
        },
        {
          "indexed": false,
          "internalType": "uint256",
          "name": "value",
          "type": "uint256"
        }
      ],
      "name": "Approval",
      "type": "event"
    },
    {
      "anonymous": false,
      "inputs": [
        {
          "indexed": true,
          "internalType": "address",
          "name": "previousOwner",
          "type": "address"
        },
        {
          "indexed": true,
          "internalType": "address",
          "name": "newOwner",
          "type": "address"
        }
      ],
      "name": "OwnershipTransferred",
      "type": "event"
    },
    {
      "anonymous": false,
      "inputs": [
        {
          "indexed": true,
          "internalType": "address",
          "name": "from",
          "type": "address"
        },
        {
          "indexed": true,
          "internalType": "address",
          "name": "to",
          "type": "address"
        },
        {
          "indexed": false,
          "internalType": "uint256",
          "name": "value",
          "type": "uint256"
        }
      ],
      "name": "Transfer",
      "type": "event"
    },
    {
      "inputs": [
        {
          "internalType": "address[]",
          "name": "_miners",
          "type": "address[]"
        }
      ],
      "name": "addMiner",
      "outputs": [],
      "stateMutability": "nonpayable",
      "type": "function"
    },
    {
      "inputs": [
        {
          "internalType": "address",
          "name": "owner",
          "type": "address"
        },
        {
          "internalType": "address",
          "name": "spender",
          "type": "address"
        }
      ],
      "name": "allowance",
      "outputs": [
        {
          "internalType": "uint256",
          "name": "",
          "type": "uint256"
        }
      ],
      "stateMutability": "view",
      "type": "function"
    },
    {
      "inputs": [
        {
          "internalType": "address",
          "name": "spender",
          "type": "address"
        },
        {
          "internalType": "uint256",
          "name": "value",
          "type": "uint256"
        }
      ],
      "name": "approve",
      "outputs": [
        {
          "internalType": "bool",
          "name": "",
          "type": "bool"
        }
      ],
      "stateMutability": "nonpayable",
      "type": "function"
    },
    {
      "inputs": [
        {
          "internalType": "address",
          "name": "account",
          "type": "address"
        }
      ],
      "name": "balanceOf",
      "outputs": [
        {
          "internalType": "uint256",
          "name": "",
          "type": "uint256"
        }
      ],
      "stateMutability": "view",
      "type": "function"
    },
    {
      "inputs": [],
      "name": "charge",
      "outputs": [
        {
          "internalType": "bool",
          "name": "",
          "type": "bool"
        }
      ],
      "stateMutability": "view",
      "type": "function"
    },
    {
      "inputs": [],
      "name": "decimals",
      "outputs": [
        {
          "internalType": "uint8",
          "name": "",
          "type": "uint8"
        }
      ],
      "stateMutability": "view",
      "type": "function"
    },
    {
      "inputs": [
        {
          "internalType": "address",
          "name": "_target",
          "type": "address"
        }
      ],
      "name": "isMiner",
      "outputs": [
        {
          "internalType": "bool",
          "name": "",
          "type": "bool"
        }
      ],
      "stateMutability": "view",
      "type": "function"
    },
    {
      "inputs": [
        {
          "internalType": "address",
          "name": "_target",
          "type": "address"
        },
        {
          "internalType": "uint256",
          "name": "_amount",
          "type": "uint256"
        }
      ],
      "name": "mint",
      "outputs": [],
      "stateMutability": "nonpayable",
      "type": "function"
    },
    {
      "inputs": [],
      "name": "name",
      "outputs": [
        {
          "internalType": "string",
          "name": "",
          "type": "string"
        }
      ],
      "stateMutability": "view",
      "type": "function"
    },
    {
      "inputs": [],
      "name": "owner",
      "outputs": [
        {
          "internalType": "address",
          "name": "",
          "type": "address"
        }
      ],
      "stateMutability": "view",
      "type": "function"
    },
    {
      "inputs": [],
      "name": "rate",
      "outputs": [
        {
          "internalType": "uint256",
          "name": "",
          "type": "uint256"
        }
      ],
      "stateMutability": "view",
      "type": "function"
    },
    {
      "inputs": [
        {
          "internalType": "address[]",
          "name": "_miners",
          "type": "address[]"
        }
      ],
      "name": "removeMiner",
      "outputs": [],
      "stateMutability": "nonpayable",
      "type": "function"
    },
    {
      "inputs": [],
      "name": "renounceOwnership",
      "outputs": [],
      "stateMutability": "nonpayable",
      "type": "function"
    },
    {
      "inputs": [
        {
          "internalType": "bool",
          "name": "_charge",
          "type": "bool"
        }
      ],
      "name": "setCharge",
      "outputs": [],
      "stateMutability": "nonpayable",
      "type": "function"
    },
    {
      "inputs": [
        {
          "internalType": "uint256",
          "name": "_rate",
          "type": "uint256"
        }
      ],
      "name": "setRate",
      "outputs": [],
      "stateMutability": "nonpayable",
      "type": "function"
    },
    {
      "inputs": [],
      "name": "symbol",
      "outputs": [
        {
          "internalType": "string",
          "name": "",
          "type": "string"
        }
      ],
      "stateMutability": "view",
      "type": "function"
    },
    {
      "inputs": [],
      "name": "totalSupply",
      "outputs": [
        {
          "internalType": "uint256",
          "name": "",
          "type": "uint256"
        }
      ],
      "stateMutability": "view",
      "type": "function"
    },
    {
      "inputs": [
        {
          "internalType": "address",
          "name": "to",
          "type": "address"
        },
        {
          "internalType": "uint256",
          "name": "value",
          "type": "uint256"
        }
      ],
      "name": "transfer",
      "outputs": [
        {
          "internalType": "bool",
          "name": "",
          "type": "bool"
        }
      ],
      "stateMutability": "nonpayable",
      "type": "function"
    },
    {
      "inputs": [
        {
          "internalType": "address",
          "name": "from",
          "type": "address"
        },
        {
          "internalType": "address",
          "name": "to",
          "type": "address"
        },
        {
          "internalType": "uint256",
          "name": "value",
          "type": "uint256"
        }
      ],
      "name": "transferFrom",
      "outputs": [
        {
          "internalType": "bool",
          "name": "",
          "type": "bool"
        }
      ],
      "stateMutability": "nonpayable",
      "type": "function"
    },
    {
      "inputs": [
        {
          "internalType": "address",
          "name": "newOwner",
          "type": "address"
        }
      ],
      "name": "transferOwnership",
      "outputs": [],
      "stateMutability": "nonpayable",
      "type": "function"
    },
    {
      "stateMutability": "payable",
      "type": "receive"
    }
  ],
  "transactionHash": "0x1ed1cce307e8a14232b5dd0663298db6de5583a92f8a07c64e2b2c451f89c91e",
  "args": [],
  "numDeployments": 1,
  "solcInputHash": "3e0303a2d553e7f30789a8f41f8eed8b",
  "bytecode": "0x60806040526007805460ff1916600117905560646008553480156200002357600080fd5b50336040518060400160405280601381526020017f4d6574697320546573746e657420546f6b656e00000000000000000000000000815250604051806040016040528060058152602001644d4554495360d81b81525081600390816200008a9190620001f0565b506004620000998282620001f0565b5050506001600160a01b038116620000cb57604051631e4fbdf760e01b81526000600482015260240160405180910390fd5b620000d681620000f7565b50336000908152600660205260409020805460ff19166001179055620002bc565b600580546001600160a01b038381166001600160a01b0319831681179093556040519116919082907f8be0079c531659141344cd1fd0a4f28419497f9722a3daafe3b4186f6b6457e090600090a35050565b634e487b7160e01b600052604160045260246000fd5b600181811c908216806200017457607f821691505b6020821081036200019557634e487b7160e01b600052602260045260246000fd5b50919050565b601f821115620001eb576000816000526020600020601f850160051c81016020861015620001c65750805b601f850160051c820191505b81811015620001e757828155600101620001d2565b5050505b505050565b81516001600160401b038111156200020c576200020c62000149565b62000224816200021d84546200015f565b846200019b565b602080601f8311600181146200025c5760008415620002435750858301515b600019600386901b1c1916600185901b178555620001e7565b600085815260208120601f198616915b828110156200028d578886015182559484019460019091019084016200026c565b5085821015620002ac5787850151600019600388901b60f8161c191681555b5050505050600190811b01905550565b610da080620002cc6000396000f3fe6080604052600436106101235760003560e01c806355161913116100a05780638da5cb5b116100645780638da5cb5b146103f457806395d89b411461041c578063a9059cbb14610431578063dd62ed3e14610451578063f2fde38b1461049757600080fd5b806355161913146103365780636283c7cd14610350578063701b70ac1461037057806370a08231146103a9578063715018a6146103df57600080fd5b8063313ce567116100e7578063313ce5671461029a57806334fcf437146102b65780634055727f146102d657806340c10f19146102f657806350bda35a1461031657600080fd5b806306fdde03146101ea578063095ea7b31461021557806318160ddd1461024557806323b872dd146102645780632c4e722e1461028457600080fd5b366101e55760085460075460ff1615610198576000341161018b5760405162461bcd60e51b815260206004820181905260248201527f54686520666175636574206973206e6f742066726565206f662063686172676560448201526064015b60405180910390fd5b6101953482610b43565b90505b34156101d9576005546040516001600160a01b03909116903480156108fc02916000818181858888f193505050501580156101d7573d6000803e3d6000fd5b505b6101e333826104b7565b005b600080fd5b3480156101f657600080fd5b506101ff6104f1565b60405161020c9190610b5a565b60405180910390f35b34801561022157600080fd5b50610235610230366004610bc5565b610583565b604051901515815260200161020c565b34801561025157600080fd5b506002545b60405190815260200161020c565b34801561027057600080fd5b5061023561027f366004610bef565b61059d565b34801561029057600080fd5b5061025660085481565b3480156102a657600080fd5b506040516012815260200161020c565b3480156102c257600080fd5b506101e36102d1366004610c2b565b6105c1565b3480156102e257600080fd5b506101e36102f1366004610c44565b61060a565b34801561030257600080fd5b506101e3610311366004610bc5565b61067f565b34801561032257600080fd5b506101e3610331366004610cb9565b6106d4565b34801561034257600080fd5b506007546102359060ff1681565b34801561035c57600080fd5b506101e361036b366004610c44565b6106ef565b34801561037c57600080fd5b5061023561038b366004610ce2565b6001600160a01b031660009081526006602052604090205460ff1690565b3480156103b557600080fd5b506102566103c4366004610ce2565b6001600160a01b031660009081526020819052604090205490565b3480156103eb57600080fd5b506101e3610756565b34801561040057600080fd5b506005546040516001600160a01b03909116815260200161020c565b34801561042857600080fd5b506101ff61076a565b34801561043d57600080fd5b5061023561044c366004610bc5565b610779565b34801561045d57600080fd5b5061025661046c366004610cfd565b6001600160a01b03918216600090815260016020908152604080832093909416825291909152205490565b3480156104a357600080fd5b506101e36104b2366004610ce2565b610787565b6001600160a01b0382166104e15760405163ec442f0560e01b815260006004820152602401610182565b6104ed600083836107c5565b5050565b60606003805461050090610d30565b80601f016020809104026020016040519081016040528092919081815260200182805461052c90610d30565b80156105795780601f1061054e57610100808354040283529160200191610579565b820191906000526020600020905b81548152906001019060200180831161055c57829003601f168201915b5050505050905090565b6000336105918185856108ef565b60019150505b92915050565b6000336105ab8582856108fc565b6105b685858561097a565b506001949350505050565b6105c96109d9565b600081116106055760405162461bcd60e51b8152602060048201526009602482015268072617465203d3d20360bc1b6044820152606401610182565b600855565b6106126109d9565b60005b8181101561067a5760016006600085858581811061063557610635610d6a565b905060200201602081019061064a9190610ce2565b6001600160a01b031681526020810191909152604001600020805460ff1916911515919091179055600101610615565b505050565b3360009081526006602052604090205460ff166106ca5760405162461bcd60e51b81526020600482015260096024820152682737ba1036b4b732b960b91b6044820152606401610182565b6104ed82826104b7565b6106dc6109d9565b6007805460ff1916911515919091179055565b6106f76109d9565b60005b8181101561067a576006600084848481811061071857610718610d6a565b905060200201602081019061072d9190610ce2565b6001600160a01b031681526020810191909152604001600020805460ff191690556001016106fa565b61075e6109d9565b6107686000610a06565b565b60606004805461050090610d30565b60003361059181858561097a565b61078f6109d9565b6001600160a01b0381166107b957604051631e4fbdf760e01b815260006004820152602401610182565b6107c281610a06565b50565b6001600160a01b0383166107f05780600260008282546107e59190610d80565b909155506108629050565b6001600160a01b038316600090815260208190526040902054818110156108435760405163391434e360e21b81526001600160a01b03851660048201526024810182905260448101839052606401610182565b6001600160a01b03841660009081526020819052604090209082900390555b6001600160a01b03821661087e5760028054829003905561089d565b6001600160a01b03821660009081526020819052604090208054820190555b816001600160a01b0316836001600160a01b03167fddf252ad1be2c89b69c2b068fc378daa952ba7f163c4a11628f55a4df523b3ef836040516108e291815260200190565b60405180910390a3505050565b61067a8383836001610a58565b6001600160a01b038381166000908152600160209081526040808320938616835292905220546000198114610974578181101561096557604051637dc7a0d960e11b81526001600160a01b03841660048201526024810182905260448101839052606401610182565b61097484848484036000610a58565b50505050565b6001600160a01b0383166109a457604051634b637e8f60e11b815260006004820152602401610182565b6001600160a01b0382166109ce5760405163ec442f0560e01b815260006004820152602401610182565b61067a8383836107c5565b6005546001600160a01b031633146107685760405163118cdaa760e01b8152336004820152602401610182565b600580546001600160a01b038381166001600160a01b0319831681179093556040519116919082907f8be0079c531659141344cd1fd0a4f28419497f9722a3daafe3b4186f6b6457e090600090a35050565b6001600160a01b038416610a825760405163e602df0560e01b815260006004820152602401610182565b6001600160a01b038316610aac57604051634a1406b160e11b815260006004820152602401610182565b6001600160a01b038085166000908152600160209081526040808320938716835292905220829055801561097457826001600160a01b0316846001600160a01b03167f8c5be1e5ebec7d5bd14f71427d1e84f3dd0314c0f7b2291e5b200ac8c7c3b92584604051610b1f91815260200190565b60405180910390a350505050565b634e487b7160e01b600052601160045260246000fd5b808202811582820484141761059757610597610b2d565b60006020808352835180602085015260005b81811015610b8857858101830151858201604001528201610b6c565b506000604082860101526040601f19601f8301168501019250505092915050565b80356001600160a01b0381168114610bc057600080fd5b919050565b60008060408385031215610bd857600080fd5b610be183610ba9565b946020939093013593505050565b600080600060608486031215610c0457600080fd5b610c0d84610ba9565b9250610c1b60208501610ba9565b9150604084013590509250925092565b600060208284031215610c3d57600080fd5b5035919050565b60008060208385031215610c5757600080fd5b823567ffffffffffffffff80821115610c6f57600080fd5b818501915085601f830112610c8357600080fd5b813581811115610c9257600080fd5b8660208260051b8501011115610ca757600080fd5b60209290920196919550909350505050565b600060208284031215610ccb57600080fd5b81358015158114610cdb57600080fd5b9392505050565b600060208284031215610cf457600080fd5b610cdb82610ba9565b60008060408385031215610d1057600080fd5b610d1983610ba9565b9150610d2760208401610ba9565b90509250929050565b600181811c90821680610d4457607f821691505b602082108103610d6457634e487b7160e01b600052602260045260246000fd5b50919050565b634e487b7160e01b600052603260045260246000fd5b8082018082111561059757610597610b2d56fea164736f6c6343000817000a",
  "devdoc": {
    "errors": {
      "ERC20InsufficientAllowance(address,uint256,uint256)": [
        {
          "details": "Indicates a failure with the `spender`s `allowance`. Used in transfers.",
          "params": {
            "allowance": "Amount of tokens a `spender` is allowed to operate with.",
            "needed": "Minimum amount required to perform a transfer.",
            "spender": "Address that may be allowed to operate on tokens without being their owner."
          }
        }
      ],
      "ERC20InsufficientBalance(address,uint256,uint256)": [
        {
          "details": "Indicates an error related to the current `balance` of a `sender`. Used in transfers.",
          "params": {
            "balance": "Current balance for the interacting account.",
            "needed": "Minimum amount required to perform a transfer.",
            "sender": "Address whose tokens are being transferred."
          }
        }
      ],
      "ERC20InvalidApprover(address)": [
        {
          "details": "Indicates a failure with the `approver` of a token to be approved. Used in approvals.",
          "params": {
            "approver": "Address initiating an approval operation."
          }
        }
      ],
      "ERC20InvalidReceiver(address)": [
        {
          "details": "Indicates a failure with the token `receiver`. Used in transfers.",
          "params": {
            "receiver": "Address to which tokens are being transferred."
          }
        }
      ],
      "ERC20InvalidSender(address)": [
        {
          "details": "Indicates a failure with the token `sender`. Used in transfers.",
          "params": {
            "sender": "Address whose tokens are being transferred."
          }
        }
      ],
      "ERC20InvalidSpender(address)": [
        {
          "details": "Indicates a failure with the `spender` to be approved. Used in approvals.",
          "params": {
            "spender": "Address that may be allowed to operate on tokens without being their owner."
          }
        }
      ],
      "OwnableInvalidOwner(address)": [
        {
          "details": "The owner is not a valid owner account. (eg. `address(0)`)"
        }
      ],
      "OwnableUnauthorizedAccount(address)": [
        {
          "details": "The caller account is not authorized to perform an operation."
        }
      ]
    },
    "events": {
      "Approval(address,address,uint256)": {
        "details": "Emitted when the allowance of a `spender` for an `owner` is set by a call to {approve}. `value` is the new allowance."
      },
      "Transfer(address,address,uint256)": {
        "details": "Emitted when `value` tokens are moved from one account (`from`) to another (`to`). Note that `value` may be zero."
      }
    },
    "kind": "dev",
    "methods": {
      "allowance(address,address)": {
        "details": "See {IERC20-allowance}."
      },
      "approve(address,uint256)": {
        "details": "See {IERC20-approve}. NOTE: If `value` is the maximum `uint256`, the allowance is not updated on `transferFrom`. This is semantically equivalent to an infinite approval. Requirements: - `spender` cannot be the zero address."
      },
      "balanceOf(address)": {
        "details": "See {IERC20-balanceOf}."
      },
      "decimals()": {
        "details": "Returns the number of decimals used to get its user representation. For example, if `decimals` equals `2`, a balance of `505` tokens should be displayed to a user as `5.05` (`505 / 10 ** 2`). Tokens usually opt for a value of 18, imitating the relationship between Ether and Wei. This is the default value returned by this function, unless it's overridden. NOTE: This information is only used for _display_ purposes: it in no way affects any of the arithmetic of the contract, including {IERC20-balanceOf} and {IERC20-transfer}."
      },
      "name()": {
        "details": "Returns the name of the token."
      },
      "owner()": {
        "details": "Returns the address of the current owner."
      },
      "renounceOwnership()": {
        "details": "Leaves the contract without owner. It will not be possible to call `onlyOwner` functions. Can only be called by the current owner. NOTE: Renouncing ownership will leave the contract without an owner, thereby disabling any functionality that is only available to the owner."
      },
      "symbol()": {
        "details": "Returns the symbol of the token, usually a shorter version of the name."
      },
      "totalSupply()": {
        "details": "See {IERC20-totalSupply}."
      },
      "transfer(address,uint256)": {
        "details": "See {IERC20-transfer}. Requirements: - `to` cannot be the zero address. - the caller must have a balance of at least `value`."
      },
      "transferFrom(address,address,uint256)": {
        "details": "See {IERC20-transferFrom}. Emits an {Approval} event indicating the updated allowance. This is not required by the EIP. See the note at the beginning of {ERC20}. NOTE: Does not update the allowance if the current allowance is the maximum `uint256`. Requirements: - `from` and `to` cannot be the zero address. - `from` must have a balance of at least `value`. - the caller must have allowance for ``from``'s tokens of at least `value`."
      },
      "transferOwnership(address)": {
        "details": "Transfers ownership of the contract to a new account (`newOwner`). Can only be called by the current owner."
      }
    },
    "version": 1
  },
  "userdoc": {
    "kind": "user",
    "methods": {},
    "version": 1
  },
  "storageLayout": {
    "storage": [
      {
        "astId": 307,
        "contract": "contracts/Token.sol:MetisToken",
        "label": "_balances",
        "offset": 0,
        "slot": "0",
        "type": "t_mapping(t_address,t_uint256)"
      },
      {
        "astId": 313,
        "contract": "contracts/Token.sol:MetisToken",
        "label": "_allowances",
        "offset": 0,
        "slot": "1",
        "type": "t_mapping(t_address,t_mapping(t_address,t_uint256))"
      },
      {
        "astId": 315,
        "contract": "contracts/Token.sol:MetisToken",
        "label": "_totalSupply",
        "offset": 0,
        "slot": "2",
        "type": "t_uint256"
      },
      {
        "astId": 317,
        "contract": "contracts/Token.sol:MetisToken",
        "label": "_name",
        "offset": 0,
        "slot": "3",
        "type": "t_string_storage"
      },
      {
        "astId": 319,
        "contract": "contracts/Token.sol:MetisToken",
        "label": "_symbol",
        "offset": 0,
        "slot": "4",
        "type": "t_string_storage"
      },
      {
        "astId": 8,
        "contract": "contracts/Token.sol:MetisToken",
        "label": "_owner",
        "offset": 0,
        "slot": "5",
        "type": "t_address"
      },
      {
        "astId": 951,
        "contract": "contracts/Token.sol:MetisToken",
        "label": "miners",
        "offset": 0,
        "slot": "6",
        "type": "t_mapping(t_address,t_bool)"
      },
      {
        "astId": 954,
        "contract": "contracts/Token.sol:MetisToken",
        "label": "charge",
        "offset": 0,
        "slot": "7",
        "type": "t_bool"
      },
      {
        "astId": 957,
        "contract": "contracts/Token.sol:MetisToken",
        "label": "rate",
        "offset": 0,
        "slot": "8",
        "type": "t_uint256"
      }
    ],
    "types": {
      "t_address": {
        "encoding": "inplace",
        "label": "address",
        "numberOfBytes": "20"
      },
      "t_bool": {
        "encoding": "inplace",
        "label": "bool",
        "numberOfBytes": "1"
      },
      "t_mapping(t_address,t_bool)": {
        "encoding": "mapping",
        "key": "t_address",
        "label": "mapping(address => bool)",
        "numberOfBytes": "32",
        "value": "t_bool"
      },
      "t_mapping(t_address,t_mapping(t_address,t_uint256))": {
        "encoding": "mapping",
        "key": "t_address",
        "label": "mapping(address => mapping(address => uint256))",
        "numberOfBytes": "32",
        "value": "t_mapping(t_address,t_uint256)"
      },
      "t_mapping(t_address,t_uint256)": {
        "encoding": "mapping",
        "key": "t_address",
        "label": "mapping(address => uint256)",
        "numberOfBytes": "32",
        "value": "t_uint256"
      },
      "t_string_storage": {
        "encoding": "bytes",
        "label": "string",
        "numberOfBytes": "32"
      },
      "t_uint256": {
        "encoding": "inplace",
        "label": "uint256",
        "numberOfBytes": "32"
      }
    }
  }
}